:400000000010002011000000891C0000891C000080B500AF01F03CFE80B584B000AF021CFB1D1A70204A3B1C0B3312781A701F4A3B1C0A3312781A700423013BFB6018E074
:400040001B4B1868391C0B31FA68131C5B009B18C3185B780B70164B1868391C0A31FA68131C5B009B18C3189B780B70FB68013BFB60FB68002B0ADB0D4B1968FA68131CF1
:400080005B009B185B5CFA1D12789A42D8D9094B3A1C0B3212781A60074B3A1C0A3212781A60BD4604B080BDCCF1FF0FCDF1FF0FE00000201CFF0B4020FF0B4080B500AF3B
:4000C000224B224A12688021C9020A431A601820FFF7A2FF1E4B19221A60052001F0B0FE1C4B1D4A1278D2B21A60052001F040FF164B164A1168194A0A401A60184B194AF7
:400100001A60194B10221A60184B20221A60184B30221A60174B11221A60174B21221A60164B822212061A60154B164A1A60164B164A1A60164B174A1A60174B174A1A6034
:40014000174B184A1A60BD4680BDC04600010B402CFF0B4028FF0B40E5F1FF0FFFFFFBFF04010B40060000800C0202401C02024020020240340202403C02024008010B40B5
:40018000000002400C0000804000024017000080800002402F00008004000240BF12008044000240BF5D008080B582B000AF72B6514B01221A70FB1D00221A7023E0FB1DC8
:4001C0001A78131C5B009B185B004C4A9B183B603B681A78597809020A43997809040A43DB781B0613431A1C3B6819795B791B020B439BB2101C191C01F0C8FDFB1D1A78A6
:40020000FB1D01321A70FB1D1B78012BD7D93C4A3C4B101C191C01F0C9FD3B4BA02212011A803A4B01221A70394B992212041A60384BC02292041A60374BEE2212021A60B2
:40024000364B20221A60364B364A1A60364B20221A60364B364A1A60364B50221A60364B364A1A60364BC0221A60364B10221A60354BD82212011A60344B992212041A604B
:40028000334B992212041A60324B992212041A60314BA82212041A60304B802292051A602F4B992212041A602E4B01221A602E4B02221A602D4B2D4A1278D2B202210A434A
:4002C000D2B21A702A4B2A4A1278D2B20C218A43D2B204210A43D2B21A70244B234A1278D2B216210A43D2B21A70FFF7E7FE01F09DFDBD4602B080BD1C700F4048480000BC
:40030000544800007448000000600F4002600F4000000140080001400C00014000000440080004408611030018000440080104403000030000020440080204404B021B002C
:400340000C020440180204400803044000500F4010500F4020500F4024500F4028500F4030500F402000004000800F4000700F4001700F4010B5064C2378002B07D1054B65
:40038000002B02D0044800E000BF0123237010BDF8000020000000004048000008B5084B002B03D00748084900E000BF07480368002B03D0064B002B00D0984708BDC04636
:4003C0000000000040480000FC000020C80000200000000090B583B000AF6F4B181C00217D2204F025FA01F0A7FE6C4B181C01F067FF002002F024F8694B181C02F060F851
:40040000684B181C02F072F902F002F902F0C8F9FF2002F045FA02F0ADFA02F0A5FB022002F0B0FB00237B6062B65F4BFA2292001A815D4B6422DA8100F08EF95B4B1B785C
:40044000002B01D000F0C0FB594B1B78DBB2002B04D000F0BDF8564B00221A70554B1B78DBB2002B61D000F027F9021C524B1A604D4B1B891BB2181C03F01AFA021C4E4BC4
:400480001B68101C191C02F053FF031C181C03F0EFF9031C9AB2444B5A81474B1B68181C464902F045FF031C181C03F0E1F9031C9AB23D4B9A813F4B00221A70404B1B6B8E
:4004C0009AB2394B9A84384B9B891BB2DA179B185340181C03F0ECF9041C334B9B8C1BB2DA179B185340181C03F0E2F9031C201C191C00F089F9031CDAB2324B1A70314B5C
:400500001B781A1C2E4B5A63274B9B8C1BB2002B03DD012002F008FA02E0002002F004FA284B1B78181C02F0CBF9002002F04EFB031C9AB2244B1A80234B1B889BB21BB25A
:400540000020191C02F064FB021C204B1A60164BDB89181C03F0ACF9021C1C4B1B68101C191C02F0E5FE031C181C03F081F9031C9AB20D4B1A827A68FA239B009A4204DD8D
:4005800000237B6000F0E8F802E07B6801337B6000F0BAF952E7C0460C03002065090000C5090000DD09000048010020350100208F0100208C0100208801002000007042EF
:4005C0004402002070010020180100201C01002080B500AF304B1B789B00DAB22E4B1A702D4B1A780F231340DAB22B4B1A7001F04BFF031C1A1C294B1A7001F053FF031C67
:400600001A1C274B1A70254B1A7801231340DAB2224B1A70224B1A7801231340DAB2204B1A701E4B1B785B00DAB21D4B1B78DBB21343DAB2184B1B78DBB21343DBB2DAB256
:40064000154B1A70144B1B78164AD25C164B1A70164B1A68144B1B785BB2D218134B1A60124B1B689AB2114BDA80104B1B681B0C9AB20E4B9A800E4B00221A600B4BDB882D
:400680001AB20B4B1B681A43094B1A60084B1A68074B1A60BD4680BD84010020440100207C010020CC00002045010020480100207401002000000000F0B585B000AF224B9C
:4006C0001A68224B1B68D31AFB6001F0CDFF031C181C03F049F9031C181C1D4902F002FD031CBB60F86803F043FF031C0C1C181C211C144B124A03F087F9031C0C1C1D1C1C
:40070000261CB86803F072FF031C0C1C281C311C1A1C231C03F078F9031C0C1C181C211C03F0B6FF031C7B60074B1A68074B1A607B68181CBD4605B0F0BDC046C046C046BA
:40074000E17A14AE47D57440480100207801002000007A44C046C04680B500AF254B1B6A002B0CD1244B254A5A61234B244A9A61214B244ADA61204B00221A6237E01D4BD2
:400780001B6A181C03F0F0F8021C1B4B5A61194B5B6A181C03F0E8F8021C174B5B69101C191C02F09FFC031C1A1C134B9A61114B9B6A181C03F0D8F8021C0F4B5B69101C96
:4007C000191C02F08FFC031C1A1C0B4BDA61094BDB6A181C03F0C8F8021C074B5B69101C191C02F07FFC031C1A1C034B1A62BD4680BDC046440200204801002000007A44ED
:400800006666663FCDCC4C3E90B587B000AF7860396000233B6100237B613868796802F0B1FE031CFB60344B1B68181CF96802F0EDFA031C1A1C304B1A602F4B1B68181C43
:4008400003F0D4FE031C0C1C181C211C294B284A03F0FEFB031C0C1C181C211C03F018FF021C254B1A60254B1B68F868191C02F089FE031C1A1C224B1A60224B9B69181C7D
:40088000F96802F055FD031C3B611E4B1A6A1C4B1B68101C191C02F04BFD031C3869191C02F0B4FA031C3B61164BDA69124B1B68101C191C02F03CFD031C3869191C02F01F
:4008C000A5FA031C3B61386902F0D2FF031C7B617B69FF2B02DDFF237B6104E07B69002B01DA00237B617B69181CBD4607B090BD333333333333E33F20010020240100208E
:40090000280100204801002080B500AF124BDB881AB2124B1A60104B9B881AB20F4B5A600D4B1B891AB20D4B9A600B4B5B891AB20A4BDA60084B9B891AB2084B1A61064B4F
:400940001B8A1AB2054BDA61054B1B781A1C034B5A63BD4680BDC04648010020440200207001002080B582B000AF00F043F8064B01221A70054B1B687B60054B7A681A6018
:40098000BD4602B080BDC0468E010020CC0F0740C00F074080B582B000AF00F097F800237B60074B01221A7001F09AFB031C7B607B68181C01F09EFBBD4602B080BDC046AD
:4009C0008D01002080B500AF034B01221A7001F0D1FDBD4680BDC0468F01002080B500AF034B01221A7001F035FEBD4680BDC0468C01002098B500AF2B4B1B78DBB2002B02
:400A00001FD02A4B1B78DBB21C1C01F037FC031CDAB2274B1A55254B1B78DBB20133DAB2224B1A70234B1B78DBB20133DAB2214B1A70214B00221A701C4B1B78DAB21F4BB7
:400A40001A701F4B1B78DBB2002B2BD0174B1B78DBB21C1C01F012FC031CDAB2144B1A55124B1B78DBB20133DAB2104B1A700F4B1B78DAB2114B1A700B4B01221A70104B2B
:400A800000221A7001F0BCFA0E4B181C01F070FC0D4B1B78DBB20133DAB20B4B1A70064B00221A70BD4698BD2C0100202D0100200C030020320100202E0100202F010020D0
:400AC000DC000020950900003301002080B500AF334B1B78DBB2002B1CD0314B1B78DBB2013BDAB22E4B1A702D4B1B78DBB2002B0AD101F097FA01F04DFC002001F0A0FC01
:400B0000274B00221A7005E001F07AFA254B181C01F02EFC224B1B78DBB2002B32D1224B1B78DBB2002B2DD0204B1B78DAB2204B1B78DBB29A4206D11E4B1B78DBB2013399
:400B4000DAB21C4B1A701B4B1B78DBB2052B13D1194B01221A70194B01221A70124B00221A70144B00221A70154B00221A7001F059FA01F00FFC05E001F042FA094B181C42
:400B800001F0F6FB0A4B1B78DAB2084B1A700D4B1B78DBB20133DAB20A4B1A70BD4680BD36010020950900002C010020300100202F0100202E010020DC0000203501002027
:400BC0002D0100203101002080B500AF224B1B78042B3BD100F0D8FF031C012B36D11E4B5B78012B02D100F03BF82FE01A4B5B78022B02D100F080F928E0174B5B78032BA4
:400C000002D100F099FB21E0134B5B78042B02D100F0BEFA1AE0104B5B78052B02D100F0A3FD13E00C4B5B78062B02D100F05AFC0CE0094B5B78102B02D100F0D3FC05E09A
:400C4000054B5B780F2B01D100F016FE034B00221A70BD4680BDC0460C0300203501002090B587B000AF0023FB600023BB6000237B603B1C173300221A70FB1C00221A7087
:400C80003B1C163300221A703B1C123300221A70964B9B78FB60FB681B02FB60934BDB78FA681343FB60914B1B79BB60BB681B02BB608E4B5B79BA681343BB608C4B04220F
:400CC0001A708B4B01225A70BB68DA083B1C17331A70BB68D9B2FB1C07220A401A70FB1C1B78002B06D03B1C17333A1C1732127801321A707E4B3A1C173212789A703B1C30
:400D00001233FA681A703B1C133303221A703B1C15333A1C173212781A709CE03B1C15331B78012B47D93B1C143300221A7035E03B1C12331B786F4AD35C002B04D03B1C1E
:400D4000163301221A7003E03B1C163300221A703B1C13331B783A1C1332127864498A5CD1B23A1C163210783A1C14321278041C9440221CD2B24A40D2B2D1B25C4AD15485
:400D80003B1C12331A783B1C123301321A703B1C14331A783B1C143301321A703B1C14331B78082BC4D13B1C13331A783B1C133301321A7048E03B1C143300221A7035E018
:400DC0003B1C12331B784B4AD35C002B04D03B1C163301221A7003E03B1C163300221A703B1C13331B783A1C1332127840498A5CD1B23A1C163210783A1C14321278041CD2
:400E00009440221CD2B24A40D2B2D1B2384AD1543B1C12331A783B1C123301321A703B1C14331A783B1C143301321A703A1C1432FB1C12781B789A42C2D13B1C13331A7864
:400E40003B1C133301321A703B1C15331A783B1C1533013A1A703B1C15331B78002B00D05CE73B1C13331B780233DBB2181C00F035FE031C7B603B1C13331B787A68120AA2
:400E8000D1B21B4AD1543B1C13331B7801337A68D1B2174AD154012001F0D2FA3B1C153300221A700EE03B1C15331B78104AD35C181C01F077F93B1C15331A783B1C15339F
:400EC00001321A703B1C15331A783B1C13331B7803339A42E7D13B1C13331B780333181C00F0B2FEBD4607B090BDC0460C030020900100201002002090B587B000AF002363
:400F0000FB600023BB6000237B603B1C173300221A70FB1C00221A703B1C163300221A703B1C123300221A70964B9B78FB60FB681B02FB60934BDB78FA681343FB60914B2C
:400F40001B79BB60BB681B02BB608E4B5B79BA681343BB608C4B04221A708B4B02225A70BB68DA083B1C17331A70BB68D9B2FB1C07220A401A70FB1C1B78002B06D03B1CE8
:400F800017333A1C1732127801321A707E4B3A1C173212789A703B1C1233FA681A703B1C133303221A703B1C15333A1C173212781A709CE03B1C15331B78012B47D93B1C8E
:400FC000143300221A7035E03B1C12331B786F4AD35C002B04D03B1C163301221A7003E03B1C163300221A703B1C13331B783A1C1332127864498A5CD1B23A1C16321078C6
:401000003A1C14321278041C9440221CD2B24A40D2B2D1B25C4AD1543B1C12331A783B1C123301321A703B1C14331A783B1C143301321A703B1C14331B78082BC4D13B1C16
:4010400013331A783B1C133301321A7048E03B1C143300221A7035E03B1C12331B784B4AD35C002B04D03B1C163301221A7003E03B1C163300221A703B1C13331B783A1CC3
:401080001332127840498A5CD1B23A1C163210783A1C14321278041C9440221CD2B24A40D2B2D1B2384AD1543B1C12331A783B1C123301321A703B1C14331A783B1C1433E0
:4010C00001321A703A1C1432FB1C12781B789A42C2D13B1C13331A783B1C133301321A703B1C15331A783B1C1533013A1A703B1C15331B78002B00D05CE73B1C13331B7836
:401100000233DBB2181C00F0E9FC031C7B603B1C13331B787A68120AD1B21B4AD1543B1C13331B7801337A68D1B2174AD154012001F086F93B1C153300221A700EE03B1C3F
:4011400015331B78104AD35C181C01F02BF83B1C15331A783B1C153301321A703B1C15331A783B1C13331B7803339A42E7D13B1C13331B780333181C00F066FDBD4607B064
:4011800090BDC0460C030020900100201002002080B586B000AF0023FB600023BB603B1C173303221A7000237B6000233B615F4B9B78FB60FB681B02FB605C4BDB78FA6898
:4011C0001343FB60594B1B79BB60BB681B02BB60564B5B79BA681343BB60554B04221A70534B04225A70BB68DBB2DB18DAB2504B9A70FB683B614AE04E4B3A699200D358B4
:40120000FF2B23D93B1C17331B784A4A396989008A58120AD1B2464AD1543B1C17331A783B1C173301321A703B1C17331B78414A396989008A58D1B23D4AD1543B1C173332
:401240001A783B1C173301321A701DE03B1C17331B78374A0021D1543B1C17331A783B1C173301321A703B1C17331B78314A396989008A58D1B22E4AD1543B1C17331A78E6
:401280003B1C173301321A703B6901333B61FA68BB68D2183B699A42AED83B1C17331B780233DBB2181C00F019FC031C7B603B1C17331B787A68120AD1B21D4AD1543B1C26
:4012C00017331A783B1C173301321A703B1C17331B787A68D1B2164AD1543B1C17333A1C1732127802321A70012001F0A9F800233B6109E00E4A3B69D3181B78181C00F015
:4013000051FF3B6901333B613B1C17331A783B699A42EFD1092000F097FC00233B613B1C173300221A70BD4606B080BD0C030020900100204402002080B586B000AF002345
:40134000FB600023BB603B1C173303221A7000237B6000233B61604B9B78FB60FB681B02FB605D4BDB78FA681343FB605A4B1B79BB60BB681B02BB60574B5B79BA68134328
:40138000BB60564B04221A70544B03225A70BB68DBB2DB18DAB2514B9A70FB683B614AE04F4B3A699200D358FF2B23D93B1C17331B784B4A396989008A58120AD1B2474A0F
:4013C000D1543B1C17331A783B1C173301321A703B1C17331B78424A396989008A58D1B23E4AD1543B1C17331A783B1C173301321A701DE03B1C17331B78384A0021D154B0
:401400003B1C17331A783B1C173301321A703B1C17331B78324A396989008A58D1B22F4AD1543B1C17331A783B1C173301321A703B6901333B61FA68BB68D2183B699A4249
:40144000AED83B1C17331B780233DBB2181C00F045FB031C7B603B1C17331B787A68120AD1B21E4AD1543B1C17331A783B1C173301321A703B1C17331B787A68D1B2174AC5
:40148000D1543B1C17333A1C1732127802321A70012000F0D5FF00233B6109E00F4A3B69D3181B78181C00F07DFE3B6901333B613B1C17331A783B699A42EFD13B1C173350
:4014C0001B78181C00F0C0FB3B1C173300221A70BD4606B080BDC0460C030020900100204402002080B588B000AF0023BB6100237B6100233B610023FB600023BB600023F3
:401500007B6000233B600023FB61334B9B783B613B691B023B61304BDB783A6913433B612D4BDB78BB612C4B9B787B612A4B1B79FB60FB681B02FB60274B5B79FA6813431C
:40154000FB60254B5B79BB60234B1B797B60234B3A699200F968D150214B04221A70204B06225A70BB69DAB21D4BDA707B69DAB21B4B9A707B68DAB2194B1A71BB68DAB2E7
:40158000174B5A71082000F0A9FA031C3B603B681B0ADAB2124B9A713B68DAB2104BDA71012000F04DFF0023FB6109E00C4AFB69D3181B78181C00F0F5FDFB690133FB61F1
:4015C000FB69092BF2D1092000F03EFB0023FB61BD4608B080BDC0460C030020440200209001002080B58CB000AF00237B6200233B620023FB610023BB6100237B610023BB
:401600003B610023FB600023BB6000237B603B1C2F3300221A7000233B600023BB624F4B9B787B627B6A1B027B624C4BDB787A6A13437B62494B9B783B62484BDB78FB6101
:40164000464B1B79BB61BB691B02BB61434B5B79BA691343BB61414B1B797B613F4B5B793B613E4B9B79FB603B1C2F3307221A70FB685B08BB600023BB6228E03B1C2F3399
:401680001B78364AD35C7B607B681B027B603B1C2F331A783B1C2F3301321A703B1C2F331B782E4AD35C7A6813437B603B1C2F331A783B1C2F3301321A707A6ABB6AD218B7
:4016C000274B92007968D150BB6A0133BB62BA6ABB689A42D2D3234B04221A70214B10225A703B6ADAB21F4B9A70FB69DAB21D4BDA707B69DAB21B4B1A713B69DAB2194BE4
:401700005A71082000F0EAF9031C3B603B681B0ADAB2144B9A713B68DAB2124BDA71012000F08EFE0023BB6209E00E4ABB6AD3181B78181C00F036FDBB6A0133BB62BB6AE1
:40174000092BF2D1092000F07FFA0023BB623B1C2F3300221A70BD460CB080BD0C030020440200209001002080B588B000AF0023BB6100237B6100233B610023FB6000233F
:40178000BB6000237B600023FB6100233B60374B9B783B613B691B023B61344BDB783A6913433B61314BDB78BB61304B9B787B612E4B1B79FB60FB681B02FB602B4B5B79FC
:4017C000FA681343FB60294B5B79BB60274B1B797B60FB68002B05D0254A3B69D318FF221A7004E0224A3B69D31800221A70214B04221A701F4B05225A70BB69DAB21D4B6C
:40180000DA707B69DAB21B4B9A707B68DAB2194B1A71BB68DAB2174B5A71082000F05EF9031C3B603B681B0ADAB2124B9A713B68DAB2104BDA71012000F002FE0023FB61FA
:4018400009E00C4AFB69D3181B78181C00F0AAFCFB690133FB61FB69092BF2D10A2000F0F3F90023FB61BD4608B080BD0C030020100200209001002080B58AB000AF00235E
:40188000FB610023BB6100237B6100233B610023FB600023BB6000237B603B1C273300221A70FB1C00221A703B1C243300221A70874B9B78FB61864B9B78BB61FB691B02D9
:4018C000FB61834BDB78FA691343FB61804BDB787B617F4B1B793B617D4B1B79FB603B691B023B617A4B5B793A6913433B61784B5B79BB60774B04221A70764B0F225A7040
:401900003B69DA083B1C27331A703B69D9B2FB1C07220A401A70FB1C1B78002B06D03B1C27333A1C2732127801321A70BB69DAB2684B9A707B69DAB2664BDA70FB68DAB28A
:40194000644B1A71BB68DAB2624B5A713B1C2433FA691A703B1C233307221A703B1C26333A1C273212781A7078E03B1C23331A78BB1C57498A5C1A703B1C23331A783B1C84
:40198000233301321A703B1C26331B78012B2ED93B1C253300221A7023E0BB1C1A783B1C25331B781A410123134006D03B1C24331B78494A0121D15405E03B1C24331B78AC
:4019C000454A0021D1543B1C24331A783B1C243301321A703B1C25331A783B1C253301321A703B1C25331B78082BD6D12FE03B1C253300221A7023E0BB1C1A783B1C253319
:401A00001B781A410123134006D03B1C24331B78314A0121D15405E03B1C24331B782E4A0021D1543B1C24331A783B1C243301321A703B1C25331A783B1C253301321A702C
:401A40003A1C2532FB1C12781B789A42D4D13B1C26331A783B1C2633013A1A703B1C26331B78002B00D080E7082000F037F8031C7B607B681B0ADAB2164B9A717B68DAB2F8
:401A8000144BDA71012000F0DBFC3B1C263300221A700EE03B1C26331B780E4AD35C181C00F080FB3B1C26331A783B1C263301321A703B1C26331B78092BEBD10A2000F0E5
:401AC000C3F83B1C263300221A70BD460AB080BD0C030020900100201002002080B588B000AF021CFB1D1A70244BFB6100233B610023FB6000237B610023BB6121E0204A36
:401B0000BB69D3181B78FA695340FB6108237B6111E0FA690123134007D0FB695B08FB61FB69184A5340FB6102E0FB695B08FB617B69013B7B617B69002BEAD1BB6901330D
:401B4000BB61FB1D1B789A1EBB699A42D7DCFB691B021B041B0C3B61FA69FF231B0213401B0AFB603A69FB6813433B613B69FB61FB69181CBD4608B080BDC046FFFF0000CF
:401B80009001002001A0000080B586B000AF2A4B7B610023BB6000237B600023FB6000233B6121E0254A3B69D3181B787A6953407B610823FB6011E07A690123134007D063
:401BC0007B695B087B617B691D4A53407B6102E07B695B087B61FB68013BFB60FB68002BEAD13B6901333B61164B1B78DBB29A1E3B699A42D6DC7A69FF231340BB607A698B
:401C0000FF231B0213401B0A7B600C4A3B69D3181B781A1CBB689A4209D13B690133074AD35C1A1C7B689A4201D1012300E00023181CBD4606B080BDFFFF00000C030020EE
:401C400001A000002F01002080B582B000AF78600A4B181C00217D2202F0EAFD7B68DBB20B33DAB2064B1A7000F0CAF9054B181C00F07EFBBD4602B080BDC0469001002005
:401C8000360100209509000080B500AFFEE7C04680B586B000AF224B7B61224B3B61204B7B6135E03B691B68FB603B695B68BB603B699B683B6000237B600CE0FB681A6883
:401CC000BB681A60BB680433BB60FB680433FB607B6804337B607A683B689A42EED13B69DB683B6000237B6008E0BB6800221A60BB680433BB607B6804337B607A683B68B2
:401D00009A42F2D13B6910333B617B69013B7B617B69002BC6D102F065FDFEF75BFBFEE701000000904A000080B582B000AF00237B600FE07B68032B04D8104B7A689200C1
:401D4000D35800E00E4B0F4A796889008B507B6801337B607B682F2BECD9FEF725FA0A4B00221A608023DB058022D205126801210A431A60BD4602B080BDC0460000000011
:401D8000891C000000000020C000002080B582B000AF786039607A683B68101C00211A1C02F046FDBD4602B080BDC04680B586B000AF7860396000233B6100237B612EE06B
:401DC0007B699B007A68D3181B68BB603B1C0F33BA681A70BB68FF229343BB6017E03B695B003A68D3181B781A1CBB68D3183A69520039688A1852781A703B6901333B6125
:401E00003B1C0F331A783B1C0F33013A1A703B1C0F331B78002BE2D17B6901337B617B69072BCDD9BD4606B080BDC04680B500AF024B10221A60BD4680BDC04600031A40E3
:401E40000230800804D0C0460138FDD1C046C046C0467047EFF3108072B6704780F310887047C046C046C04680B584B000AF021C3960FB1D1A7080239B05FB60FB1D1B781F
:401E80001F2B02D9002000F069F8FB1D1B7810339B00FA68D3181B68BB60FB1D1B7810339B00FA68D3183A681A60BB68181CBD4604B080BD90B587B000AF0A1CFB1D011C55
:401EC0001970BB1D1A70BB1D1B78032B02D9002000F044F8FB1D1B781F2B02D9002000F03DF8FB1D1A7803231340DB0006337B613C1C1334FFF7AEFF031C2370FB1D1B7870
:401F00009B08DBB29B0014495B181B68FB607B690322111C99400B1CDA43FB681340FB60BB1D1A787B69111C99400B1CFA681343FB60FB1D1B789B08DBB29B00064A9B18BD
:401F4000FA681A603B1C13331B78181CFFF786FFBD4607B090BDC04600E400E080B582B000AF021CFB1D1A7001BEBD4602B080BD80B582B000AF021CBB1D1A80BB1D1B882D
:401F8000044A12785343181CFFF75AFFBD4602B080BDC046EC00002080B500AF084B812292041A60074B0C221A60012000F08CF8282000F05DF8002000F04CF8BD4680BD92
:401FC000000105402401054090B583B000AFFC1DFFF740FF031C2370084B084A126801210A431A60FB1D1B78181CFFF737FF0120182100F04BF8BD4603B090BD0000054022
:4020000080B500AF064B1B78002B04D1FFF7C4FF034B01221A70FFF7D7FFBD4680BDC0463701002090B583B000AFFC1DFFF712FF031C2370064B064A126801218A431A603D
:40204000FB1D1B78181CFFF709FFBD4603B090BD0000054080B582B000AF7860034B7A681204120C1A60BD4602B080BD0801054080B582B000AF7860034B7A681204120CDD
:402080001A60BD4602B080BD1401054090B585B000AF786039603C1C0F34FFF7DBFE031C2370084B3A687968081C9040021C1A603B1C0F331B78181CFFF7D0FEBD4605B066
:4020C00090BDC0460800054080B582B000AF7860024B7A681A60BD4602B080BD3801054080B500AF024B1B68181CBD4680BDC0463001054080B582B000AF7860024B7A6878
:402100001A60BD4602B080BD3001054080B500AF00F05EF8BD4680BD80B500AF054B054A1268802109060A431A6000F017F8BD4680BDC0460000074080B500AF064B1B788B
:40214000002B04D1FFF7E2FF034B01221A70FFF7E3FFBD4680BDC0463801002080B500AFBD4680BD80B582B000AF00237B60044B1B687B607B68181CBD4602B080BDC04622
:402180004003074080B582B000AF054B1A680F2313407B607B68181CBD4602B080BDC0460803074080B582B000AF7860C046064B1A680F231340082BF9D0044B7A681A60F9
:4021C000BD4602B080BDC046080207404002074080B500AF174B184A1A60184B00221A60174B01221A60174B174A1A60174B07221A60174B00221A60164B01221A60164B4E
:40220000164A1A60164B00221A60164B00221A60154B00221A60154B00221A60144B00221A60144B04221A60134B00221A60BD4680BDC046000007400F00000240000740B9
:40224000480007400003074007020080040307401003074044000740000207400700008004020740880E0740C80E0740480F0740080F0740C80F0740880F074080B582B053
:4022800000AF00237B60FFF77DFF031C002B03D0FFF768FF031C7B60084B1A68D8239B00134005D000237B60044BD82292001A607B68181CBD4602B080BDC046C00F074080
:4022C00080B582B000AF786000F048F87B68181C00F008F8002000F011F800F035F8BD4602B080BD80B582B000AF7860024B7A68DA66BD4602B080BD0000002090B585B0A8
:4023000000AF021CFB1D1A701E23FB603C1C0B34FFF7A0FD031C23700A4B0A4A126892009108FA1D1078FA68041C9440221C0A431A603B1C0B331B78181CFFF78FFDBD468D
:4023400005B090BD08E400E080B500AF024B802212011A60BD4680BD00E100E080B500AF024B802212011A60BD4680BD80E100E080B582B000AF786000F058F87B68181C08
:4023800000F014F8002000F01FF800F045F8BD4602B080BD80B500AF00F048F8024B181C00F004F8BD4680BD891C000080B582B000AF7860034A80237968D150BD4602B0E0
:4023C00080BDC0460000002090B585B000AF021CFB1D1A700623FB603C1C0B34FFF73AFD031C23700B4B0B4A1268C021101C8843011CFA1D1078FA68041C9440221C0A43FD
:402400001A603B1C0B331B78181CFFF727FDBD4605B090BD10E400E080B500AF024B802252021A60BD4680BD00E100E080B500AF024B802252021A60BD4680BD80E100E00F
:4024400080B584B000AF021CFB1D1A700D4B1B68DAB23B1C0F3301218A431A70FB1D1A7801231340D9B23B1C0F333A1C0F3212780A431A70034B3A1C0F3212781A60BD46E2
:4024800004B080BD0002044080B500AF044B1A68022313405B08DBB2181CBD4680BDC0460402044080B500AF044B1A68042313409B08DBB2181CBD4680BDC04604020440E1
:4024C00080B582B000AF786000F04AF87B68181C00F008F8032000F011F800F037F8BD4602B080BD80B582B000AF7860024B7A689A64BD4602B080BD0000002090B585B0E1
:4025000000AF021CFB1D1A701623FB603C1C0B34FFF7A0FC031C23700A4B0A4A11680A4A1140FA1D1078FA68041C9440221C0A431A603B1C0B331B78181CFFF78FFCBD461C
:4025400005B090BD00E400E0FFFF3FFF80B500AF024B04221A60BD4680BDC04600E100E080B500AF024B04221A60BD4680BDC04680E100E080B582B000AF094B1B68D9B2B1
:40258000FB1D08220A401A70054BFA1D12781A60FB1D1B78DB08DBB2181CBD4602B080BD1002044090B583B000AF312000F066F8312000F07DF8FC1DFFF74CFC031C23707E
:4025C0000A4B0A4A1278D2B210210A43D2B21A70FB1D1B78181CFFF741FC00F079F8012000F028F8BD4603B090BDC04691000F4080B500AF054B054A1278D2B2802149424E
:402600000A43D2B21A70BD4680BDC04671000F4080B500AF064B1B78002B04D1FFF7C2FF034B01221A70FFF7E3FFBD4680BDC0464001002080B582B000AF021CFB1D1A706A
:40264000034BFA1D12781A70BD4602B080BDC04681000F4080B500AF024B1B78DBB2181CBD4680BD61000F4080B500AF024B1B78DBB2181CBD4680BD21000F4080B582B008
:4026800000AF021CFB1D1A70034BFA1D12781A70BD4602B080BDC04621000F4080B500AF024B1B78DBB2181CBD4680BD41000F4080B582B000AF021CFB1D1A70034BFA1D3A
:4026C00012781A70BD4602B080BDC04601000F4080B500AF01E0FFF7E1FFFFF7BBFF031C1A1C08231340F6D1BD4680BD80B582B000AF786000F04AF87B68181C00F008F832
:40270000032000F011F800F037F8BD4602B080BD80B582B000AF7860024B7A681A64BD4602B080BD0000002090B585B000AF021CFB1D1A700623FB603C1C0B34FFF78AFB40
:40274000031C23700B4B0B4A1268C021101C8843011CFA1D1078FA68041C9440221C0A431A603B1C0B331B78181CFFF777FBBD4605B090BD00E400E080B500AF024B0122B2
:402780001A60BD4680BDC04600E100E080B500AF024B01221A60BD4680BDC04680E100E080B500AF064B1B78002B04D100F00AF8034B01221A7000F045F8BD4680BDC0461B
:4027C0004101002090B583B000AF1C4B1B78DAB2FB1D3F218A431A70184BFA1D127809210A43D2B21A70164B154A1278D2B201210A43D2B21A70FF2000F034F8FF2000F0DD
:402800004FF8002000F05CF8002000F069F8BC1DFFF720FB031C2370094B094A1278D2B210210A43D2B21A70BB1D1B78181CFFF715FB00F027F8BD4603B090BD70000F4029
:4028400090000F4080B500AF054B054A1278D2B2802149420A43D2B21A70BD4680BDC04670000F4080B582B000AF021CFB1D1A70034BFA1D12781A70BD4602B080BDC04615
:4028800000000F4080B500AF01E000F043F800F037F8031C1A1C10231340F6D1BD4680BD80B582B000AF021CFB1D1A70034BFA1D12781A70BD4602B080BDC04640000F4002
:4028C00080B582B000AF021CFB1D1A70034BFA1D12781A70BD4602B080BDC04620000F4080B582B000AF021CFB1D1A70034BFA1D12781A70BD4602B080BDC04680000F400C
:4029000080B500AF024B1B78DBB2181CBD4680BD60000F4080B500AF024B1B78DBB2181CBD4680BD50000F4080B584B000AF021CFB1D1A700E4B1B68DAB23B1C0F332021A5
:402940008A431A70FB1D1B785B01DAB220231340D9B23B1C0F333A1C0F3212780A431A70034B3A1C0F3212781A60BD4604B080BD0002044080B500AF064B1B78002B04D1D0
:4029800000F00AF8034B01221A7000F0D9F8BD4680BDC0464201002090B585B000AF0E200321FFF787FA4E4B0E20191CFFF75CFA4C4B01221A604C4B4C4A1A604C4B4D4A7D
:4029C0001A604D4B4D4A1A604D4B00221A604D4B4D4A1A604D4B4C4A1A604D4B4C4A1268802149020A431A604A4B00221A604A4B00221A60494B01221A60494B02221A600F
:402A0000484B1B687B607A68474B13407B607B68012213437B60434B7A681A600023FB6057E00022DC239B0113407B60FB689B003E4A9B187A681A600022012313400AD03A
:402A4000344B344A1168FA680120041C9440221C92B20A431A600022022313400AD02E4B2D4A1168FA680120041C9440221C92B20A431A60002280239B00134003D080235A
:402A80005B00BB6002E080235B01BB60002280235B00134005D1264BFA6852000021D15204E0234BFA6852000021D152BB68214A5343214A9B18181C1E4900F045F9031C7E
:402AC0009BB219B21D4BFA689200D150FB680133FB60FB68002BA4D0BD4605B090BDC046912C000020001A4000001A407002005304001A40AC00008018001A400000FF07EA
:402B00001C001A4010001A400400040014001A4000031A4028021A4038021A4018021A40000F1A4030001A40FFFFFFDF80001A409003002010270000881300008C03002079
:402B400080B500AF074B1B68002B09DB054B054A1268802109060A431A600A20FFF708FABD4680BD00001A4080B500AF044B044A1268802149020A431A60BD4680BDC0464D
:402B800004001A4080B584B000AF78600023FB607A680323134011D00B4B1A6801231340FB60FB68002B03D17A6802231340F3D1FB68002B02D0044B01221A60FB68181C00
:402BC000BD4604B080BDC04610021A4080B584B000AF78607B68002B02D00020FFF7BEF97B68002B08D17B689B00084A9B181B681B041B0CFB6001E00023FB60FB689BB235
:402C00001BB2181CBD4604B080BDC04680011A4090B585B000AF78600A1CBB1C1A807B68002B02D00020FFF799F9BB1C1A88154B79684900CB5A9BB29BB2D31A9AB2BB1CCC
:402C40001A80BB1C00229B5E181C00F031FE031C181C0D4900F06CFB031C1C1C0B4B7A689200D358181C00F023FE031C201C191C00F038FA031CFB60FB68181CBD4605B069
:402C800090BDC04690030020000020418C03002080B582B000AF044B1B687B60024B7A681A60BD4602B080BD10021A40002934D00123002210B488422CD301242407A14201
:402CC00004D2814202D209011B01F8E7E400A14204D2814202D249005B00F8E7884201D3401A1A434C08A04202D3001B5C0822438C08A04202D3001B9C082243CC08A04242
:402D000002D3001BDC082243002803D01B0901D00909E3E7101C10BC7047002801D00020C04307B4024802A14018029003BDC046D90000000029F0D003B5FFF7B9FF0EBC79
:402D40004243891A1847C046002941D010B4041C4C40A44601230022002900D54942002800D5404288422CD301242407A14204D2814202D209011B01F8E7E400A14204D2D9
:402D8000814202D249005B00F8E7884201D3401A1A434C08A04202D3001B5C0822438C08A04202D3001B9C082243CC08A04202D3001BDC082243002803D01B0901D0090955
:402DC000E3E7101C6446002C00D5404210BC7047002806D003DB0020C043400801E08020000607B4024802A14018029003BDC046190000000029EBD003B5FFF7A7FF0EBCEC
:402E00004243891A1847C0467047C046F8B543024400C50F4E024800240E2A1C9B09000EC90FB6098D425BD0221A002A00DC89E000281DD1002E00D075E0580704D00F2273
:402E40001A40042A00D004338021C90419402A1C00293AD00134FF2C00D17FE09B015B0A5B02E4B2E405580AD20720431043F8BDFF2CE2D08021C9040E431B2A00DD2DE1A4
:402E8000311C2020D140821A9640721E96410E439B1B5801D1D59B019F09381C01F084FC421F974094425BDC141B1F231B1B3A1C9F40611C3B1CCA405F1EBB41134300249A
:402EC000BBE7131EB9D100230022DB08FF2C04D1002B43D08020C00303435B025B0ABFE7211A002940DD002823D0FF2CA5D08020C00406431B2900DDEEE0301C2027C8408B
:402F0000791A8E40711E8E4106439B19590100D493E70134FF2C55D0714901221A400B405B08134389E7013A002AB1D0FF2CA4D183E7002E00D180E701390029E5D0FF2C64
:402F4000D8D17AE7002A1BD1621CD2B2012A4BDD9F1B7A0123D5F71A0D1C9EE700237FE75F4BA41A3B4068E7002946D1611CC8B2012829DDFF2924D0F3185B080C1C5CE7DA
:402F8000002C13D0FF2818D08024E404524223431B2A4DDD0123F31A041C0D1C79E7002F00D07AE70023002200248EE7002B3BD0D243002AEFD0FF28EAD1331CFF240D1C35
:402FC0003BE7FF24002380E7002C5CD1002B00D180E0002E00D130E79B19580100D42CE73F4A0124134028E7002C15D1002B40D1002E63D0331C0D1C1FE7002C21D1002BBD
:4030000054D0C943002904D0FF284CD01B2958DD01239B19041C79E7002B19D1002E48D0331C0D1CFF2408E7331C041C0D1C04E71C1C2025D440AA1A93405A1E934123430D
:40304000A9E7FF282FD08024E40449422343DDE7FF24002E00D1F0E68022DB08D203134204D0F608164201D1331C0D1CDB00FF24E3E6002E00D1E0E69A1B500100D420E7D1
:40308000F31A0D1CD9E6002B0DD0FF24002E00D1D3E68022DB08D2031342E7D0F6081642E4D1331CE2E7331CFF24C6E6331C041CC3E6802300229B04FF2406E7231C0022A4
:4030C00003E71C1C2027CC40791A8B40591E8B4123439EE7331CB0E6012616E70126D7E6FFFFFFFBF0B55F4656464D464446F0B446024500C00F85B00F1C760A2D0E804606
:4031000041D0FF2D26D08024240400212643F6007F3D89468B46F90F7C027800640A000E00918A463CD0FF2834D080231B041C430023E4007F380193009F4346019A7B40B1
:4031400049469C4611430F2900D971E0764F89007F58BF46002E3ED10822022391469B46D9E75A46341CC24601920199022937D0032900D1CFE0012900D0ABE053460B408E
:403180000022002632E0002E19D10421012289469346C0E7221C531E9A4102320192CBE701270197002CC7D0201C01F0FDFA431F9C4076235B420021181A0191BCE7301C14
:4031C00001F0F2FA7625431F9E406D4200232D1A99469B469FE70C23032199468B469AE7D446012367463B40FF2200267602D205700ADB071043184305B03CBC90469946CC
:40320000A246AB46F0BD80260023F603FF22EDE700220026EAE78020C00306423BD0044239D1061C26437602760A009BFF22DDE7281A039076016401A64239D3361B1A22FD
:4032400001230120311C5B007600002901DBB44201D8361B0343013A002AF3DC741EA641341C1C43039A7F32002A27DD630704D00F232340042B00D00434270103D52B4B28
:40328000039A1C408032FE2A0BDD012361460B40FF220026AAE706437602760A4346FF22A4E7A40101236746660AD2B23B409DE7039F1B22013F03970023C2E77E23039FBE
:4032C0005B42DB1B1B2B07DD012361460B40002200268BE7D446C5E7221CDA40039B9E339C40231C5C1EA34113435A0704D00F221A40042A00D004335F0105D501236146EB
:403300000B400122002671E79E01624601231340760A00226AE78026F60326437602760A5346FF2262E7C0466C490000FFFFFFF7F0B55F4656464D464446F0B4440246000B
:4033400083B00F1C640A360EC50F002E41D0FF2E22D080231B0400201C43E4007F3E82468046391C4B007F02C90F7F0A1B0E8B463BD0FF2B34D0802212041743FF007F3B1B
:4033800000215A466A40019252460A430F2A63D87A48920082589746002C3FD10822022392469846DDE70195404602282AD1019A01251540FF2300246402DB05600AED0765
:4033C0001843284303B03CBC90469946A246AB46F0BD002C27D10420012282469046C0E7391C4A1E91410231CBE70121002FC8D0381C01F0D9F9431F9F4076235B421B1A51
:403400000021BEE7032800D1AEE001284FD1019842461040C5B200230024CDE70C2303209A4680469DE7201C01F0BEF97626431F9C4076420023361A9A46984691E78024D1
:403440000025E403FF23B7E75B463C1C01938846AAE73C1C8846A7E7250C24043A0C240C3F04F6183F0C211C231C794353436F435543FB180A0C9B18B1469F4202D980222C
:403480005202AD1809041A04090C521894011B0C611E8C41920EED181443AD012C43230105D5012263080120144081441C434B467F33002B2DDD600704D00F222240042A8F
:4034C00000D00434220103D52D4B1C404B468033FE2B17DD019B01251D400024FF236BE78020C003044208D0074206D1041C3C436402640A5D46FF235EE704436402640AA4
:40350000FF2359E70198A4010125640ADBB2054052E77E235B424A469B1A1B2B05DD019B01251D400024002346E7221CDA404B469E339C40231C5C1EA3411343580704D052
:403540000F221A40042A00D004335A0105D5019B01251D40002401232EE701989C010125640A0540002327E78027FF03019B3C43640201251D40640AFF231DE7AC49000064
:40358000FFFFFFF7F8B5C20F430244004D024800240E161C9B09000EC90FAD09FF2800D183E0012779408A425CD0221A002A00DC8EE000281ED1002D00D07AE0580704D050
:4035C0000F221A40042A00D004338021C90401221940324000293AD00134FF2C00D183E09B015B0A5B02E4B2E405580AD20720431043F8BDFF2CE1D08021C9040D431B2A86
:4036000000DD31E1291C2020D140821A95406A1E95410D435B1B5801D0D59B019F09381C01F0C2F8421F974094425FDC141B1F231B1B3A1C9F40611C3B1CCA405F1EBB41B3
:4036400013430024BAE7131EB8D100230022DB08FF2C04D1002B47D08020C00303435B025B0ABFE7211A002944DD002827D0FF2CA4D08020C00405431B2900DDF2E0281CD4
:403680002027C840791A8D40691E8D4105435B19590100D492E70134FF2C59D0734901221A400B405B08134388E7002D00D07AE777E7013A002AADD0FF2CA0D17EE7002DA2
:4036C00000D17BE701390029E1D0FF2CD4D175E7002A1BD1621CD2B2012A4BDD5F1B7A0123D5EF1A0E1C9AE700237BE75F4BA41A3B4063E7002946D1611CC8B2012829DD33
:40370000FF2924D0EB185B080C1C57E7002C13D0FF2818D08024E404524223431B2A4DDD0123EB1A041C0E1C75E7002F00D076E70023002200248AE7002B3BD0D243002A14
:40374000EFD0FF28EAD12B1CFF240E1C36E7FF2400237CE7002C5CD1002B00D180E0002D00D12BE75B19580100D427E73F4A0124134023E7002C15D1002B40D1002D63D021
:403780002B1C0E1C1AE7002C21D1002B54D0C943002904D0FF284CD01B2958DD01235B19041C75E7002B19D1002D48D02B1C0E1CFF2403E72B1C041C0E1CFFE61C1C202685
:4037C000D440B21A93405A1E93412343A9E7FF282FD08024E40449422343DDE7FF24002D00D1EBE68022DB08D203134204D0ED08154201D12B1C0E1CDB00FF24DEE6002D7A
:4038000000D1DBE65A1B500100D41CE7EB1A0E1CD4E6002B0DD0FF24002D00D1CEE68022DB08D2031342E7D0ED081542E4D12B1CE2E72B1CFF24C1E62B1C041CBEE680235D
:4038400000229B04FF2402E7231C0022FFE61C1C2027CC40791A8B40591E8B4123439EE72B1CABE6012512E70125D3E6FFFFFFFB4302590A4300C20F1B0E00207E2B0DDDB8
:403880009D2B0CDC802000040143952B0ADC9620C31AD9404842002A00D1081C7047034BD018FBE7963B9940F4E7C046FFFFFF7F70B5041E3CD0C60F00D04442201C00F0F5
:4038C00073FF9E23251C1B1A962B0CDC083884406402640ADBB2321C6402DB05600AD2071843104370BD992B0ADD0522121A211CD1400A1C011C1B318D40691E8D4115430A
:40390000052801DD421F9540164C2C406A0704D00F221540042D00D0043461010CD59F23181AFF281AD0A401640AC3B2321CD3E7002200230024CFE7E408FF2B04D064022D
:40394000640ADBB2321CC7E7002C04D08020C00304436402640A321CFF23BDE7321CFF230024B9E7FFFFFFFB10B5041E33D000F01BFF9E231B1A962B09DC08388440640298
:40398000640ADBB26402DB05600A184310BD992B0ADD0522121A211CD1400A1C011C1B318C40611E8C411443052801DD421F9440144A2240610704D00F210C40042C00D032
:4039C000043251010AD59F23181AFF2816D09401640AC3B2D6E700230024D3E7D208FF2B03D05402640ADBB2CCE7002A06D08024E40314436402640AFF23C3E7FF23002486
:403A0000C0E7C046FFFFFFFBF0B5564644465F464D46F0B41F1C0B031B0B98464B0087B0041C81465B0DC80F161C9A460090002B51D06A4B9A4531D08022414652030A43F7
:403A4000630FD2001A43664B90460025E20091469A44002402953B031B0B9B46FD0F7B00311C5B0D019560D05C4A934254D08021584649030143720FC9001143584A8B46E1
:403A80009B18F1000020009A04436A4003920F2C00D9ADE0534EA4003459A746404604436ED1002102250824884689460295D2E7009C0298C34649460194022864D0032869
:403AC00000D1ABE2012800D038E2019A002402400025A14660E0434623434AD04046002800D1C0E100F060FE031E272B00DDB3E128210D1A211C083B4246E9409A400D1C09
:403B00001543221C9A40A8469146374B00251B1A9A46002402959EE75A4616430320002EB1D1B34600210220ADE75A4632431BD05B46002B00D18AE1584600F035FE2728A0
:403B400000DD7DE12822171A011C321C08395B46FA408B40171C1F43331C8B40BB46191C214B1B1A00208EE70027BB460021012089E70020012504248046814602956AE765
:403B800003250C24029566E7019C0394039D01222A400024114DA146002000212403260B0C0D2405114B34432D0523402B435B005B08D207191C4846114307B03CBC90461B
:403BC0009946A246AB46F0BD0022802424039146024DE1E700240025A146DDE7FF07000001FCFFFFEC4900000DFCFFFFFFFF0F805546ED1A0495D84500D953E100D14EE162
:403C0000049C0025013C4E4604944746A946584603020C0E1C430902250C23041B0C0091381C291C0193FFF741F8019983464143381C8A46291CFFF77DF8330C09041943E4
:403C40008A450CD95B460919013B8C4200D947E18A4500D844E102225242934409195346CB1A181C291C9846FFF720F8071C0198291C784382464046FFF75CF836040B04C5
:403C8000360C33439A4509D91B197A1E9C4200D924E19A4500D821E1023F1B195E4632041743380CBB46009E009F51463F0C32045B1A5946BA46120C0F043F0C904651460A
:403CC0007A434F434146414356467043CF19160CBE19B14202D980277F02C019310C12043604120C4018B618834200D2C4E000D1BEE0191A4846861BB145BF417F42CF1BED
:403D0000A74200D113E1291C381CFEF7CFFF019902904143381C8946291CFFF70BF8330C0904194389450CD9029B0919013B8C4200D9FFE0894500D8FCE0029F0919023F06
:403D400002974F46CF1B381C291C0597FEF7AEFF071C0198291C784381460598FEF7EAFF36040904360C0E43B14509D936197B1EB44200D9E0E0B14500D8DDE0023F361912
:403D8000029D4946761A290439430B0457460A0C1B0C40464546584355437B437A43EB18070CDB199D4202D980256D0252191D0C00041B04000C52191B18964235D300D10A
:403DC000FCE001231943049E994FF519002D00DCA1E0480709D00F230B40042B05D00B1D8B42894149428B44191C5A46D20107D5904B5C46049E80271C40FF00A346F519E7
:403E00008D4B9D427ADD039C0122224000248B4DA146C1E680242403474627424CD13C432403240B009A854DB6E63619481EB4425ED9011C9642C4D1009E9E42C1D1C2E7E6
:403E4000031C283B311C99408B46002188E6301C00F0AAFC203072E6283B211C994000228846914651E6201C00F09EFC20303BE60021B14500D33DE7009F5A46B944B945BA
:403E8000BF417F423F19FB18013A9C421ED2984200D97EE000D1B5E0191A93462AE7894500D8ADE64846464642467708D3074608C0071E438146AAE65846204212D104430E
:403EC00024032A1C240B89465C4D65E6A342E3D1009F4F45DBD9211A93460BE7171CDDE69B46BCE63C432403240B009A534D53E6B24259D800D18AE0011C62E75F46C908E0
:403F00007B07039E0B437C026D0501229946240B6D0D324040E64A4B049FDB1B382B10DD039C0122224000240025A14634E60121494248E7029304E71F1C21E7019C03941E
:403F400041E71F2B40DC3F48049F0C1C3A1858469140DC40904020430A1C511E8A41011C11435A46DA40131C480709D00F220A40042A05D00A1D8A42894149425B18111C09
:403F80001A0234D5039C0122224000240125A14602E6009F02214942B9448B44B945894149420919CB18A4E6009D881E6900A942AD416D422C19361900913AE7002B00D02F
:403FC00033E70024009437E71F4A049C5D46121BD5402A1C202B1FD01C4E5F46A3199F403B1C19434B1E994111430023BCE75A07C9080A43039F91465B0201221C0B3A4090
:404000000025C9E54E45C4D89346002172E6009F9F42C9D3011C0FE70023E2E7802424035F463C432403240B019A8946034DB3E5FF030000FFFFFFFEFE070000FF07000072
:4040400002FCFFFF1E040000E2FBFFFF3E040000F0B5564644465F464D46F0B41F1C0B031B0B9A464B0087B0041C80465B0DC80F161C02938146002B68D0694B029999424D
:4040800032D08022534652031A43D200630F1A439246644AE000891880460291002400253B031B0B9B467800FB0F321C400D039300D175E05A4B984269D08022594652035B
:4040C0000A43730FD2001A43564B9346C018F200002303994E4671401C430F2C00D9A9E0514EA4003459A74653461C4300D087E00025AA46A84608240225D1E74946022DC6
:404100006CD0032D00D117E2012D00D058E10D40EDB20024A9460023A0460020002125030A0D1C052D0B1205404B2A43134023435B004C465B08E207191C4046114307B06A
:404140003CBC90469946A246AB46F0BD5346234350D05346002B00D184E1504600F024FB031E272B00DD76E128210D1A211C083B5246E9409A400D1C1543221C9A40AA4693
:4041800090462B4B00241B1A0293002588E75B461E430323002E9CD1B3460022022398E75B46334321D05846002800D14EE100F0FBFA272800DD42E128210F1A021C311CD0
:4041C000083A5B46F94093400F1C1F43331C9340BB461A1C164B181A00237AE701230B4000249946A0460E4B97E70027BB46002201236EE7002104248A46884601254FE79E
:404200000C2403254CE700258024A9462403A846034B82E7DA46904603991D1C6FE7C046FF07000001FCFFFF2C4A0000FFFF0F800DFCFFFF029F160C381804904046070CFD
:404240000004000C1204120C031C5343041C3D1C7443554398463B1C73436419A44644460293230C63449D4204D9029D802464022D1902951D0C039545462C041B04240C29
:404280001C1905945C46230C051C58432404240C8446381C604365435F438146CC44280C6044BB46814502D980277F02BB442D04070C2D0C000440195546BC462F04E344F7
:4042C0008446280C3D0C2F1C5743B8462F1C77434243B94647463F0C9144BA46D14446434A4502D980225202B6184F463A0CB6183A0447463F043F0CB8462F1C67435D43FD
:404300004443584365190190380C2D184244B846AC4204D9019880235B02C0180190039C029F201C6044C0196045A44147466442A4462B043C049946240C4C44A046D844C2
:404340008018C246E24490429241574652429146F219E245BF417F424B46BC46D845BF41D4187F4263461F432D0C7F19B24292414C45AD4152426D421543019E7D19AB19C4
:40438000E20D5B02059F134342023A439A46531E9A41C30D101C18436402204380465046C0010DD5454601225646049C6B082A401A43F30701341A43760804949046B24617
:4043C000049E634FF319002B61DD404640070BD00F2244462240042A06D042460432424580414042824490465546ED0107D5594B5646049F80201E40C000B2463B18564A16
:40440000934200DDEAE644465546E2086807104301226C025B050A408046240B5B0D91467BE6DA4690461D1C69E680242403574627421CD13C432403240B484B6DE6031C43
:40444000283B311C99408B460022C3E6301C00F0ABF92030ADE6283B211C994000228A4690468EE6201C00F09FF9203078E65846204207D1044303992403240B8946904677
:40448000364B4AE63C432403240B344B45E6344B049E9B1B382B06DD01230B4000249946A046002339E61F2B25DC049C2D4D46466019524644468640DC4082405746301CFC
:4044C0002243DF40441EA04102433B1C540709D00F201040042805D0101D9042924152429B18021C1D021AD501230B4000249946A046012311E61C48049C5546001BC5402E
:40450000281C202B16D0194E5746A21997403A1C43461A43531E9A4102430023D6E758075B02D2081C0B01230B401043994680460023F2E50022EBE780242403504601232C
:40454000044319402403240B8946044BE5E5C046FF030000FFFFFFFEFE070000FF07000002FCFFFF1E040000E2FBFFFF3E040000F8B5041E31D0C70F00D04442201C00F0EC
:4045800013F9184D2D1A0A2819DD0B38844024036D05240B6D0D3A1C0026002000210B0D2403240B1B0523430F4C2D051C402C4364006408D307211C301C1943F8BD061C63
:4045C0001536231CB3401E1C0B23181AC44024036D05240B6D0D3A1CDFE70022002500240026DAE71E040000FFFF0F8043001B0E5A1C4102D2B270B54C0AC50F012A17DD2A
:40460000E02292006407090B9818002200231E0D221C34050C431B49400540082140014349004908ED070B1C2B43101C191C70BD002B15D1002C1CD0201C00F0B5F80A2806
:404640001ADC0B21091A231CCB40191C031C15339C400D4B0903181A4005090B400DD4E7002C03D06407090B0848CEE707480021CBE700200021C8E7011C0B398C40211C3D
:404680000024E6E7FFFF0F8089030000FF070000F0B54B000D03420F5B0D6D0A15435A1C5205CC0FC600520D012A27DD394FDA19FE2A1ADC002A35DD8001ED00431E9841E9
:4046C0002843760F3043430704D00F230340042B00D004308021C904014027D00132FF2A1DD083015B0AD1B201E0FF2100235802C905400AE40708432043F0BD002B06D158
:40470000354311D10021002043025B0AEFE72E43EBD08020ED0080042843FF22D3E7FF210023E4E717320DDA05200022C008D1B2FF2AE9D10028D9D08023DB0303435B0233
:404740005B0AD4E78022144912041543C91A1F290DDC124A371C9B18281C9F4098403B1C5A1E93411843CE4030430022ABE70C4F2A1CFF1AFA40171C202909D0094A9818BC
:404780008540281C3043461EB041384300229AE70020F7E780FCFFFF9E03000082FCFFFF7E030000A2FCFFFF1C2101231B04984201D3000C10391B0A984201D3000A0839B7
:4047C0001B09984201D30009043902A2105C40187047C0460403020201010101000000000000000070B50E4B0E4D0024ED1AAD101E1CAC4204D0A300F35898470134F8E7CF
:4048000000F034F9084B094D0024ED1AAD101E1CAC4204D0A300F35898470134F8E770BD784A0000784A0000784A0000804A0000031C8218934202D019700133FAE77047FB
:40484000000000000400000000300F40000400400F40000402000F4047300F4028310F4001330F4004400F4002420F4002430F4002600F40800D810D07020804120113011A
:4048800023022607300432023302340135013F044020410545D14720482349FF4AFF4BFF4DA04F04501852805405580459045A045B045C115D115F01604062C06440654063
:4048C00066C068C06AC06CC06EC083018F01B101BF01C045C5ECC602C807C9FFCAFFCBFFCF01D018D280D401D604D904DA04DB04DD33DF01E040E240E440E540E680E8801C
:40490000EA80EC80EE8000100902102018101A401B202004220427802A01310238043C023F8040044680482249014F8550025201574059015A485F85674071027401768070
:404940008740C002C208C404CA01CC01CE92D084D218D6DBD880B7206E808640DA80E6406308D802B704E802100A110130320000E2310000103200006A3100001032000028
:4049800006320000103200006A310000E2310000E2310000063200006A3100006231000062310000623100001632000058340000523400005234000048340000A8330000F9
:4049C000A83300003E34000048340000A83300003E340000A833000048340000A6330000A6330000A6330000E0340000F03B00008C3B0000D43B0000BA3A0000D43B0000A7
:404A0000C83B0000D43B0000BA3A00008C3B00008C3B0000C83B0000BA3A0000B03A0000B03A0000B03A0000143E000034420000224400002244000014420000FE40000005
:404A4000FE4000000642000014420000FE40000006420000FE40000014420000FC400000FC400000FC4000002A440000F8B5C046F8BC08BC9E4670479D030000291D000072
:404A8000F8B5C046F8BC08BC9E46704775030000A04A0000C800002030000000A00200000000000000FF0100010000FFFF0000010001FF0001000000C0F1FF0F00366E01AF
:404AC000C05D0000180000000000E02E0000000000000000000000000000000000000000000000000000000000000000000000000000000000000000000000000000000073
:404B00000000000000000000000000000000000000000000000000000000000000000000000000000000000000000000000000000000000000000000000000000000000075
:404B40000000000000000000000000000000000000000000000000000000000000000000000000000000000000000000000000000000000000000000000000000000000035
:404B800000000000000000000000000000000000000000000000000000000000000000000000000000000000000000000000000000000000000000000000000000000000F5
:404BC00000000000000000000000000000000000000000000000000000000000000000000000000000000000000000000000000000000000000000000000000000000000B5
:0200000490303A
:020000009D84DD
:0200000490402A
:200000000000000000000000000000000000000000000000000000000000000000000000E0
:0200000490501A
:0C000000000204C81193110104E0AF17C6
:0200000490600A
:0100000001FE
:00000001FF